{
  "_format": "hh-sol-artifact-1",
  "contractName": "Factory",
  "sourceName": "contracts/Factory.sol",
  "abi": [
    {
      "anonymous": false,
      "inputs": [
        {
          "indexed": true,
          "internalType": "address",
          "name": "contractAddress",
          "type": "address"
        }
      ],
      "name": "ContractDeployed",
      "type": "event"
    },
    {
      "inputs": [
        {
          "internalType": "address",
          "name": "_initialOwner",
          "type": "address"
        },
        {
          "internalType": "string",
          "name": "_poapName",
          "type": "string"
        },
        {
          "internalType": "string",
          "name": "_poapShortName",
          "type": "string"
        },
        {
          "internalType": "string",
          "name": "_poapURL",
          "type": "string"
        }
      ],
      "name": "deployPOAP",
      "outputs": [],
      "stateMutability": "nonpayable",
      "type": "function"
    },
    {
      "inputs": [
        {
          "internalType": "uint256",
          "name": "",
          "type": "uint256"
        }
      ],
      "name": "deployedContracts",
      "outputs": [
        {
          "internalType": "address",
          "name": "",
          "type": "address"
        }
      ],
      "stateMutability": "view",
      "type": "function"
    },
    {
      "inputs": [],
      "name": "getDeployedContracts",
      "outputs": [
        {
          "internalType": "address[]",
          "name": "",
          "type": "address[]"
        }
      ],
      "stateMutability": "view",
      "type": "function"
    }
  ],
  "bytecode": "0x608060405234801561001057600080fd5b5061321e806100206000396000f3fe60806040523480156200001157600080fd5b5060043610620000455760003560e01c8062a48f58146200004a5780639ad1ee10146200006a578063aa9a068f14620000a0575b600080fd5b6200006860048036038101906200006291906200046b565b620000c2565b005b62000088600480360381019062000082919062000575565b620001b2565b604051620000979190620005b8565b60405180910390f35b620000aa620001f2565b604051620000b99190620006a3565b60405180910390f35b600084848484604051620000d69062000282565b620000e5949392919062000750565b604051809103906000f08015801562000102573d6000803e3d6000fd5b5090506000819080600181540180825580915050600190039060005260206000200160009091909190916101000a81548173ffffffffffffffffffffffffffffffffffffffff021916908373ffffffffffffffffffffffffffffffffffffffff1602179055508073ffffffffffffffffffffffffffffffffffffffff167f8ffcdc15a283d706d38281f500270d8b5a656918f555de0913d7455e3e6bc1bf60405160405180910390a25050505050565b60008181548110620001c357600080fd5b906000526020600020016000915054906101000a900473ffffffffffffffffffffffffffffffffffffffff1681565b606060008054806020026020016040519081016040528092919081815260200182805480156200027857602002820191906000526020600020905b8160009054906101000a900473ffffffffffffffffffffffffffffffffffffffff1673ffffffffffffffffffffffffffffffffffffffff16815260200190600101908083116200022d575b5050505050905090565b612a3680620007b383390190565b6000604051905090565b600080fd5b600080fd5b600073ffffffffffffffffffffffffffffffffffffffff82169050919050565b6000620002d182620002a4565b9050919050565b620002e381620002c4565b8114620002ef57600080fd5b50565b6000813590506200030381620002d8565b92915050565b600080fd5b600080fd5b6000601f19601f8301169050919050565b7f4e487b7100000000000000000000000000000000000000000000000000000000600052604160045260246000fd5b6200035e8262000313565b810181811067ffffffffffffffff8211171562000380576200037f62000324565b5b80604052505050565b60006200039562000290565b9050620003a3828262000353565b919050565b600067ffffffffffffffff821115620003c657620003c562000324565b5b620003d18262000313565b9050602081019050919050565b82818337600083830152505050565b600062000404620003fe84620003a8565b62000389565b9050828152602081018484840111156200042357620004226200030e565b5b62000430848285620003de565b509392505050565b600082601f83011262000450576200044f62000309565b5b813562000462848260208601620003ed565b91505092915050565b600080600080608085870312156200048857620004876200029a565b5b60006200049887828801620002f2565b945050602085013567ffffffffffffffff811115620004bc57620004bb6200029f565b5b620004ca8782880162000438565b935050604085013567ffffffffffffffff811115620004ee57620004ed6200029f565b5b620004fc8782880162000438565b925050606085013567ffffffffffffffff81111562000520576200051f6200029f565b5b6200052e8782880162000438565b91505092959194509250565b6000819050919050565b6200054f816200053a565b81146200055b57600080fd5b50565b6000813590506200056f8162000544565b92915050565b6000602082840312156200058e576200058d6200029a565b5b60006200059e848285016200055e565b91505092915050565b620005b281620002c4565b82525050565b6000602082019050620005cf6000830184620005a7565b92915050565b600081519050919050565b600082825260208201905092915050565b6000819050602082019050919050565b6200060c81620002c4565b82525050565b600062000620838362000601565b60208301905092915050565b6000602082019050919050565b60006200064682620005d5565b620006528185620005e0565b93506200065f83620005f1565b8060005b83811015620006965781516200067a888262000612565b975062000687836200062c565b92505060018101905062000663565b5085935050505092915050565b60006020820190508181036000830152620006bf818462000639565b905092915050565b600081519050919050565b600082825260208201905092915050565b60005b8381101562000703578082015181840152602081019050620006e6565b60008484015250505050565b60006200071c82620006c7565b620007288185620006d2565b93506200073a818560208601620006e3565b620007458162000313565b840191505092915050565b6000608082019050620007676000830187620005a7565b81810360208301526200077b81866200070f565b905081810360408301526200079181856200070f565b90508181036060830152620007a781846200070f565b90509594505050505056fe60806040523480156200001157600080fd5b5060405162002a3638038062002a368339818101604052810190620000379190620003c1565b83838381600090816200004b9190620006db565b5080600190816200005d9190620006db565b505050600073ffffffffffffffffffffffffffffffffffffffff168173ffffffffffffffffffffffffffffffffffffffff1603620000d55760006040517f1e4fbdf7000000000000000000000000000000000000000000000000000000008152600401620000cc9190620007d3565b60405180910390fd5b620000e6816200010360201b60201c565b508060089081620000f89190620006db565b5050505050620007f0565b6000600660009054906101000a900473ffffffffffffffffffffffffffffffffffffffff16905081600660006101000a81548173ffffffffffffffffffffffffffffffffffffffff021916908373ffffffffffffffffffffffffffffffffffffffff1602179055508173ffffffffffffffffffffffffffffffffffffffff168173ffffffffffffffffffffffffffffffffffffffff167f8be0079c531659141344cd1fd0a4f28419497f9722a3daafe3b4186f6b6457e060405160405180910390a35050565b6000604051905090565b600080fd5b600080fd5b600073ffffffffffffffffffffffffffffffffffffffff82169050919050565b60006200020a82620001dd565b9050919050565b6200021c81620001fd565b81146200022857600080fd5b50565b6000815190506200023c8162000211565b92915050565b600080fd5b600080fd5b6000601f19601f8301169050919050565b7f4e487b7100000000000000000000000000000000000000000000000000000000600052604160045260246000fd5b62000297826200024c565b810181811067ffffffffffffffff82111715620002b957620002b86200025d565b5b80604052505050565b6000620002ce620001c9565b9050620002dc82826200028c565b919050565b600067ffffffffffffffff821115620002ff57620002fe6200025d565b5b6200030a826200024c565b9050602081019050919050565b60005b83811015620003375780820151818401526020810190506200031a565b60008484015250505050565b60006200035a6200035484620002e1565b620002c2565b90508281526020810184848401111562000379576200037862000247565b5b6200038684828562000317565b509392505050565b600082601f830112620003a657620003a562000242565b5b8151620003b884826020860162000343565b91505092915050565b60008060008060808587031215620003de57620003dd620001d3565b5b6000620003ee878288016200022b565b945050602085015167ffffffffffffffff811115620004125762000411620001d8565b5b62000420878288016200038e565b935050604085015167ffffffffffffffff811115620004445762000443620001d8565b5b62000452878288016200038e565b925050606085015167ffffffffffffffff811115620004765762000475620001d8565b5b62000484878288016200038e565b91505092959194509250565b600081519050919050565b7f4e487b7100000000000000000000000000000000000000000000000000000000600052602260045260246000fd5b60006002820490506001821680620004e357607f821691505b602082108103620004f957620004f86200049b565b5b50919050565b60008190508160005260206000209050919050565b60006020601f8301049050919050565b600082821b905092915050565b600060088302620005637fffffffffffffffffffffffffffffffffffffffffffffffffffffffffffffffff8262000524565b6200056f868362000524565b95508019841693508086168417925050509392505050565b6000819050919050565b6000819050919050565b6000620005bc620005b6620005b08462000587565b62000591565b62000587565b9050919050565b6000819050919050565b620005d8836200059b565b620005f0620005e782620005c3565b84845462000531565b825550505050565b600090565b62000607620005f8565b62000614818484620005cd565b505050565b5b818110156200063c5762000630600082620005fd565b6001810190506200061a565b5050565b601f8211156200068b576200065581620004ff565b620006608462000514565b8101602085101562000670578190505b620006886200067f8562000514565b83018262000619565b50505b505050565b600082821c905092915050565b6000620006b06000198460080262000690565b1980831691505092915050565b6000620006cb83836200069d565b9150826002028217905092915050565b620006e68262000490565b67ffffffffffffffff8111156200070257620007016200025d565b5b6200070e8254620004ca565b6200071b82828562000640565b600060209050601f8311600181146200075357600084156200073e578287015190505b6200074a8582620006bd565b865550620007ba565b601f1984166200076386620004ff565b60005b828110156200078d5784890151825560018201915060208501945060208101905062000766565b86831015620007ad5784890151620007a9601f8916826200069d565b8355505b6001600288020188555050505b505050505050565b620007cd81620001fd565b82525050565b6000602082019050620007ea6000830184620007c2565b92915050565b61223680620008006000396000f3fe608060405234801561001057600080fd5b50600436106101165760003560e01c806370a08231116100a2578063a22cb46511610071578063a22cb465146102cd578063b88d4fde146102e9578063c87b56dd14610305578063e985e9c514610335578063f2fde38b1461036557610116565b806370a0823114610257578063715018a6146102875780638da5cb5b1461029157806395d89b41146102af57610116565b806323b872dd116100e957806323b872dd146101b557806340d097c3146101d157806342842e0e146101ed57806354a18d57146102095780636352211e1461022757610116565b806301ffc9a71461011b57806306fdde031461014b578063081812fc14610169578063095ea7b314610199575b600080fd5b61013560048036038101906101309190611a09565b610381565b6040516101429190611a51565b60405180910390f35b610153610463565b6040516101609190611afc565b60405180910390f35b610183600480360381019061017e9190611b54565b6104f5565b6040516101909190611bc2565b60405180910390f35b6101b360048036038101906101ae9190611c09565b610511565b005b6101cf60048036038101906101ca9190611c49565b610527565b005b6101eb60048036038101906101e69190611c9c565b610629565b005b61020760048036038101906102029190611c49565b61065a565b005b61021161067a565b60405161021e9190611afc565b60405180910390f35b610241600480360381019061023c9190611b54565b610708565b60405161024e9190611bc2565b60405180910390f35b610271600480360381019061026c9190611c9c565b61071a565b60405161027e9190611cd8565b60405180910390f35b61028f6107d4565b005b6102996107e8565b6040516102a69190611bc2565b60405180910390f35b6102b7610812565b6040516102c49190611afc565b60405180910390f35b6102e760048036038101906102e29190611d1f565b6108a4565b005b61030360048036038101906102fe9190611e94565b6108ba565b005b61031f600480360381019061031a9190611b54565b6108d7565b60405161032c9190611afc565b60405180910390f35b61034f600480360381019061034a9190611f17565b610940565b60405161035c9190611a51565b60405180910390f35b61037f600480360381019061037a9190611c9c565b6109d4565b005b60007f80ac58cd000000000000000000000000000000000000000000000000000000007bffffffffffffffffffffffffffffffffffffffffffffffffffffffff1916827bffffffffffffffffffffffffffffffffffffffffffffffffffffffff1916148061044c57507f5b5e139f000000000000000000000000000000000000000000000000000000007bffffffffffffffffffffffffffffffffffffffffffffffffffffffff1916827bffffffffffffffffffffffffffffffffffffffffffffffffffffffff1916145b8061045c575061045b82610a5a565b5b9050919050565b60606000805461047290611f86565b80601f016020809104026020016040519081016040528092919081815260200182805461049e90611f86565b80156104eb5780601f106104c0576101008083540402835291602001916104eb565b820191906000526020600020905b8154815290600101906020018083116104ce57829003601f168201915b5050505050905090565b600061050082610ac4565b5061050a82610b4c565b9050919050565b610523828261051e610b89565b610b91565b5050565b600073ffffffffffffffffffffffffffffffffffffffff168273ffffffffffffffffffffffffffffffffffffffff16036105995760006040517f64a0ae920000000000000000000000000000000000000000000000000000000081526004016105909190611bc2565b60405180910390fd5b60006105ad83836105a8610b89565b610ba3565b90508373ffffffffffffffffffffffffffffffffffffffff168173ffffffffffffffffffffffffffffffffffffffff1614610623578382826040517f64283d7b00000000000000000000000000000000000000000000000000000000815260040161061a93929190611fb7565b60405180910390fd5b50505050565b610631610dbd565b6000600760008154809291906106469061201d565b9190505590506106568282610e44565b5050565b610675838383604051806020016040528060008152506108ba565b505050565b6008805461068790611f86565b80601f01602080910402602001604051908101604052809291908181526020018280546106b390611f86565b80156107005780601f106106d557610100808354040283529160200191610700565b820191906000526020600020905b8154815290600101906020018083116106e357829003601f168201915b505050505081565b600061071382610ac4565b9050919050565b60008073ffffffffffffffffffffffffffffffffffffffff168273ffffffffffffffffffffffffffffffffffffffff160361078d5760006040517f89c62b640000000000000000000000000000000000000000000000000000000081526004016107849190611bc2565b60405180910390fd5b600360008373ffffffffffffffffffffffffffffffffffffffff1673ffffffffffffffffffffffffffffffffffffffff168152602001908152602001600020549050919050565b6107dc610dbd565b6107e66000610e62565b565b6000600660009054906101000a900473ffffffffffffffffffffffffffffffffffffffff16905090565b60606001805461082190611f86565b80601f016020809104026020016040519081016040528092919081815260200182805461084d90611f86565b801561089a5780601f1061086f5761010080835404028352916020019161089a565b820191906000526020600020905b81548152906001019060200180831161087d57829003601f168201915b5050505050905090565b6108b66108af610b89565b8383610f28565b5050565b6108c5848484610527565b6108d184848484611097565b50505050565b60606108e282610ac4565b5060006108ed61124e565b9050600081511161090d5760405180602001604052806000815250610938565b80610917846112e0565b6040516020016109289291906120a1565b6040516020818303038152906040525b915050919050565b6000600560008473ffffffffffffffffffffffffffffffffffffffff1673ffffffffffffffffffffffffffffffffffffffff16815260200190815260200160002060008373ffffffffffffffffffffffffffffffffffffffff1673ffffffffffffffffffffffffffffffffffffffff16815260200190815260200160002060009054906101000a900460ff16905092915050565b6109dc610dbd565b600073ffffffffffffffffffffffffffffffffffffffff168173ffffffffffffffffffffffffffffffffffffffff1603610a4e5760006040517f1e4fbdf7000000000000000000000000000000000000000000000000000000008152600401610a459190611bc2565b60405180910390fd5b610a5781610e62565b50565b60007f01ffc9a7000000000000000000000000000000000000000000000000000000007bffffffffffffffffffffffffffffffffffffffffffffffffffffffff1916827bffffffffffffffffffffffffffffffffffffffffffffffffffffffff1916149050919050565b600080610ad0836113ae565b9050600073ffffffffffffffffffffffffffffffffffffffff168173ffffffffffffffffffffffffffffffffffffffff1603610b4357826040517f7e273289000000000000000000000000000000000000000000000000000000008152600401610b3a9190611cd8565b60405180910390fd5b80915050919050565b60006004600083815260200190815260200160002060009054906101000a900473ffffffffffffffffffffffffffffffffffffffff169050919050565b600033905090565b610b9e83838360016113eb565b505050565b600080610baf846113ae565b9050600073ffffffffffffffffffffffffffffffffffffffff168373ffffffffffffffffffffffffffffffffffffffff1614610bf157610bf08184866115b0565b5b600073ffffffffffffffffffffffffffffffffffffffff168173ffffffffffffffffffffffffffffffffffffffff1614610c8257610c336000856000806113eb565b6001600360008373ffffffffffffffffffffffffffffffffffffffff1673ffffffffffffffffffffffffffffffffffffffff168152602001908152602001600020600082825403925050819055505b600073ffffffffffffffffffffffffffffffffffffffff168573ffffffffffffffffffffffffffffffffffffffff1614610d05576001600360008773ffffffffffffffffffffffffffffffffffffffff1673ffffffffffffffffffffffffffffffffffffffff168152602001908152602001600020600082825401925050819055505b846002600086815260200190815260200160002060006101000a81548173ffffffffffffffffffffffffffffffffffffffff021916908373ffffffffffffffffffffffffffffffffffffffff160217905550838573ffffffffffffffffffffffffffffffffffffffff168273ffffffffffffffffffffffffffffffffffffffff167fddf252ad1be2c89b69c2b068fc378daa952ba7f163c4a11628f55a4df523b3ef60405160405180910390a4809150509392505050565b610dc5610b89565b73ffffffffffffffffffffffffffffffffffffffff16610de36107e8565b73ffffffffffffffffffffffffffffffffffffffff1614610e4257610e06610b89565b6040517f118cdaa7000000000000000000000000000000000000000000000000000000008152600401610e399190611bc2565b60405180910390fd5b565b610e5e828260405180602001604052806000815250611674565b5050565b6000600660009054906101000a900473ffffffffffffffffffffffffffffffffffffffff16905081600660006101000a81548173ffffffffffffffffffffffffffffffffffffffff021916908373ffffffffffffffffffffffffffffffffffffffff1602179055508173ffffffffffffffffffffffffffffffffffffffff168173ffffffffffffffffffffffffffffffffffffffff167f8be0079c531659141344cd1fd0a4f28419497f9722a3daafe3b4186f6b6457e060405160405180910390a35050565b600073ffffffffffffffffffffffffffffffffffffffff168273ffffffffffffffffffffffffffffffffffffffff1603610f9957816040517f5b08ba18000000000000000000000000000000000000000000000000000000008152600401610f909190611bc2565b60405180910390fd5b80600560008573ffffffffffffffffffffffffffffffffffffffff1673ffffffffffffffffffffffffffffffffffffffff16815260200190815260200160002060008473ffffffffffffffffffffffffffffffffffffffff1673ffffffffffffffffffffffffffffffffffffffff16815260200190815260200160002060006101000a81548160ff0219169083151502179055508173ffffffffffffffffffffffffffffffffffffffff168373ffffffffffffffffffffffffffffffffffffffff167f17307eab39ab6107e8899845ad3d59bd9653f200f220920489ca2b5937696c318360405161108a9190611a51565b60405180910390a3505050565b60008373ffffffffffffffffffffffffffffffffffffffff163b1115611248578273ffffffffffffffffffffffffffffffffffffffff1663150b7a026110db610b89565b8685856040518563ffffffff1660e01b81526004016110fd949392919061211a565b6020604051808303816000875af192505050801561113957506040513d601f19601f82011682018060405250810190611136919061217b565b60015b6111bd573d8060008114611169576040519150601f19603f3d011682016040523d82523d6000602084013e61116e565b606091505b5060008151036111b557836040517f64a0ae920000000000000000000000000000000000000000000000000000000081526004016111ac9190611bc2565b60405180910390fd5b805181602001fd5b63150b7a0260e01b7bffffffffffffffffffffffffffffffffffffffffffffffffffffffff1916817bffffffffffffffffffffffffffffffffffffffffffffffffffffffff19161461124657836040517f64a0ae9200000000000000000000000000000000000000000000000000000000815260040161123d9190611bc2565b60405180910390fd5b505b50505050565b60606008805461125d90611f86565b80601f016020809104026020016040519081016040528092919081815260200182805461128990611f86565b80156112d65780601f106112ab576101008083540402835291602001916112d6565b820191906000526020600020905b8154815290600101906020018083116112b957829003601f168201915b5050505050905090565b6060600060016112ef84611690565b01905060008167ffffffffffffffff81111561130e5761130d611d69565b5b6040519080825280601f01601f1916602001820160405280156113405781602001600182028036833780820191505090505b509050600082602001820190505b6001156113a3578080600190039150507f3031323334353637383961626364656600000000000000000000000000000000600a86061a8153600a8581611397576113966121a8565b5b0494506000850361134e575b819350505050919050565b60006002600083815260200190815260200160002060009054906101000a900473ffffffffffffffffffffffffffffffffffffffff169050919050565b80806114245750600073ffffffffffffffffffffffffffffffffffffffff168273ffffffffffffffffffffffffffffffffffffffff1614155b1561155857600061143484610ac4565b9050600073ffffffffffffffffffffffffffffffffffffffff168373ffffffffffffffffffffffffffffffffffffffff161415801561149f57508273ffffffffffffffffffffffffffffffffffffffff168173ffffffffffffffffffffffffffffffffffffffff1614155b80156114b257506114b08184610940565b155b156114f457826040517fa9fbf51f0000000000000000000000000000000000000000000000000000000081526004016114eb9190611bc2565b60405180910390fd5b811561155657838573ffffffffffffffffffffffffffffffffffffffff168273ffffffffffffffffffffffffffffffffffffffff167f8c5be1e5ebec7d5bd14f71427d1e84f3dd0314c0f7b2291e5b200ac8c7c3b92560405160405180910390a45b505b836004600085815260200190815260200160002060006101000a81548173ffffffffffffffffffffffffffffffffffffffff021916908373ffffffffffffffffffffffffffffffffffffffff16021790555050505050565b6115bb8383836117e3565b61166f57600073ffffffffffffffffffffffffffffffffffffffff168373ffffffffffffffffffffffffffffffffffffffff160361163057806040517f7e2732890000000000000000000000000000000000000000000000000000000081526004016116279190611cd8565b60405180910390fd5b81816040517f177e802f0000000000000000000000000000000000000000000000000000000081526004016116669291906121d7565b60405180910390fd5b505050565b61167e83836118a4565b61168b6000848484611097565b505050565b600080600090507a184f03e93ff9f4daa797ed6e38ed64bf6a1f01000000000000000083106116ee577a184f03e93ff9f4daa797ed6e38ed64bf6a1f01000000000000000083816116e4576116e36121a8565b5b0492506040810190505b6d04ee2d6d415b85acef8100000000831061172b576d04ee2d6d415b85acef81000000008381611721576117206121a8565b5b0492506020810190505b662386f26fc10000831061175a57662386f26fc1000083816117505761174f6121a8565b5b0492506010810190505b6305f5e1008310611783576305f5e1008381611779576117786121a8565b5b0492506008810190505b61271083106117a857612710838161179e5761179d6121a8565b5b0492506004810190505b606483106117cb57606483816117c1576117c06121a8565b5b0492506002810190505b600a83106117da576001810190505b80915050919050565b60008073ffffffffffffffffffffffffffffffffffffffff168373ffffffffffffffffffffffffffffffffffffffff161415801561189b57508273ffffffffffffffffffffffffffffffffffffffff168473ffffffffffffffffffffffffffffffffffffffff16148061185c575061185b8484610940565b5b8061189a57508273ffffffffffffffffffffffffffffffffffffffff1661188283610b4c565b73ffffffffffffffffffffffffffffffffffffffff16145b5b90509392505050565b600073ffffffffffffffffffffffffffffffffffffffff168273ffffffffffffffffffffffffffffffffffffffff16036119165760006040517f64a0ae9200000000000000000000000000000000000000000000000000000000815260040161190d9190611bc2565b60405180910390fd5b600061192483836000610ba3565b9050600073ffffffffffffffffffffffffffffffffffffffff168173ffffffffffffffffffffffffffffffffffffffff16146119985760006040517f73c6ac6e00000000000000000000000000000000000000000000000000000000815260040161198f9190611bc2565b60405180910390fd5b505050565b6000604051905090565b600080fd5b600080fd5b60007fffffffff0000000000000000000000000000000000000000000000000000000082169050919050565b6119e6816119b1565b81146119f157600080fd5b50565b600081359050611a03816119dd565b92915050565b600060208284031215611a1f57611a1e6119a7565b5b6000611a2d848285016119f4565b91505092915050565b60008115159050919050565b611a4b81611a36565b82525050565b6000602082019050611a666000830184611a42565b92915050565b600081519050919050565b600082825260208201905092915050565b60005b83811015611aa6578082015181840152602081019050611a8b565b60008484015250505050565b6000601f19601f8301169050919050565b6000611ace82611a6c565b611ad88185611a77565b9350611ae8818560208601611a88565b611af181611ab2565b840191505092915050565b60006020820190508181036000830152611b168184611ac3565b905092915050565b6000819050919050565b611b3181611b1e565b8114611b3c57600080fd5b50565b600081359050611b4e81611b28565b92915050565b600060208284031215611b6a57611b696119a7565b5b6000611b7884828501611b3f565b91505092915050565b600073ffffffffffffffffffffffffffffffffffffffff82169050919050565b6000611bac82611b81565b9050919050565b611bbc81611ba1565b82525050565b6000602082019050611bd76000830184611bb3565b92915050565b611be681611ba1565b8114611bf157600080fd5b50565b600081359050611c0381611bdd565b92915050565b60008060408385031215611c2057611c1f6119a7565b5b6000611c2e85828601611bf4565b9250506020611c3f85828601611b3f565b9150509250929050565b600080600060608486031215611c6257611c616119a7565b5b6000611c7086828701611bf4565b9350506020611c8186828701611bf4565b9250506040611c9286828701611b3f565b9150509250925092565b600060208284031215611cb257611cb16119a7565b5b6000611cc084828501611bf4565b91505092915050565b611cd281611b1e565b82525050565b6000602082019050611ced6000830184611cc9565b92915050565b611cfc81611a36565b8114611d0757600080fd5b50565b600081359050611d1981611cf3565b92915050565b60008060408385031215611d3657611d356119a7565b5b6000611d4485828601611bf4565b9250506020611d5585828601611d0a565b9150509250929050565b600080fd5b600080fd5b7f4e487b7100000000000000000000000000000000000000000000000000000000600052604160045260246000fd5b611da182611ab2565b810181811067ffffffffffffffff82111715611dc057611dbf611d69565b5b80604052505050565b6000611dd361199d565b9050611ddf8282611d98565b919050565b600067ffffffffffffffff821115611dff57611dfe611d69565b5b611e0882611ab2565b9050602081019050919050565b82818337600083830152505050565b6000611e37611e3284611de4565b611dc9565b905082815260208101848484011115611e5357611e52611d64565b5b611e5e848285611e15565b509392505050565b600082601f830112611e7b57611e7a611d5f565b5b8135611e8b848260208601611e24565b91505092915050565b60008060008060808587031215611eae57611ead6119a7565b5b6000611ebc87828801611bf4565b9450506020611ecd87828801611bf4565b9350506040611ede87828801611b3f565b925050606085013567ffffffffffffffff811115611eff57611efe6119ac565b5b611f0b87828801611e66565b91505092959194509250565b60008060408385031215611f2e57611f2d6119a7565b5b6000611f3c85828601611bf4565b9250506020611f4d85828601611bf4565b9150509250929050565b7f4e487b7100000000000000000000000000000000000000000000000000000000600052602260045260246000fd5b60006002820490506001821680611f9e57607f821691505b602082108103611fb157611fb0611f57565b5b50919050565b6000606082019050611fcc6000830186611bb3565b611fd96020830185611cc9565b611fe66040830184611bb3565b949350505050565b7f4e487b7100000000000000000000000000000000000000000000000000000000600052601160045260246000fd5b600061202882611b1e565b91507fffffffffffffffffffffffffffffffffffffffffffffffffffffffffffffffff820361205a57612059611fee565b5b600182019050919050565b600081905092915050565b600061207b82611a6c565b6120858185612065565b9350612095818560208601611a88565b80840191505092915050565b60006120ad8285612070565b91506120b98284612070565b91508190509392505050565b600081519050919050565b600082825260208201905092915050565b60006120ec826120c5565b6120f681856120d0565b9350612106818560208601611a88565b61210f81611ab2565b840191505092915050565b600060808201905061212f6000830187611bb3565b61213c6020830186611bb3565b6121496040830185611cc9565b818103606083015261215b81846120e1565b905095945050505050565b600081519050612175816119dd565b92915050565b600060208284031215612191576121906119a7565b5b600061219f84828501612166565b91505092915050565b7f4e487b7100000000000000000000000000000000000000000000000000000000600052601260045260246000fd5b60006040820190506121ec6000830185611bb3565b6121f96020830184611cc9565b939250505056fea2646970667358221220c300942255a251eae212ae9251bb4730dccbd192cd0bfe11f6b30f1adb78605e64736f6c63430008180033a2646970667358221220659d7d2721f8fdb52e77e6b5a270da793a08b1dd2e009520b1daa68adb30ef6f64736f6c63430008180033",
  "linkReferences": {},
  "deployedLinkReferences": {}
}