{
  "_format": "hh-sol-artifact-1",
  "contractName": "Factory",
  "sourceName": "contracts/Factory.sol",
  "abi": [
    {
      "anonymous": false,
      "inputs": [
        {
          "indexed": true,
          "internalType": "address",
          "name": "contractAddress",
          "type": "address"
        }
      ],
      "name": "ContractDeployed",
      "type": "event"
    },
    {
      "inputs": [
        {
          "internalType": "address",
          "name": "_initialOwner",
          "type": "address"
        },
        {
          "internalType": "string",
          "name": "_poapName",
          "type": "string"
        },
        {
          "internalType": "string",
          "name": "_poapShortName",
          "type": "string"
        },
        {
          "internalType": "string",
          "name": "_poapURL",
          "type": "string"
        }
      ],
      "name": "deployPOAP",
      "outputs": [],
      "stateMutability": "nonpayable",
      "type": "function"
    },
    {
      "inputs": [
        {
          "internalType": "uint256",
          "name": "",
          "type": "uint256"
        }
      ],
      "name": "deployedPOAPs",
      "outputs": [
        {
          "internalType": "address",
          "name": "",
          "type": "address"
        }
      ],
      "stateMutability": "view",
      "type": "function"
    },
    {
      "inputs": [],
      "name": "getDeployedContracts",
      "outputs": [
        {
          "internalType": "address[]",
          "name": "",
          "type": "address[]"
        }
      ],
      "stateMutability": "view",
      "type": "function"
    }
  ],
  "bytecode": "0x608060405234801561001057600080fd5b50613efc806100206000396000f3fe60806040523480156200001157600080fd5b5060043610620000455760003560e01c8062a48f58146200004a5780638a9d179e146200006a578063aa9a068f14620000a0575b600080fd5b6200006860048036038101906200006291906200046b565b620000c2565b005b62000088600480360381019062000082919062000575565b620001b2565b604051620000979190620005b8565b60405180910390f35b620000aa620001f2565b604051620000b99190620006a3565b60405180910390f35b600084848484604051620000d69062000282565b620000e5949392919062000750565b604051809103906000f08015801562000102573d6000803e3d6000fd5b5090506000819080600181540180825580915050600190039060005260206000200160009091909190916101000a81548173ffffffffffffffffffffffffffffffffffffffff021916908373ffffffffffffffffffffffffffffffffffffffff1602179055508073ffffffffffffffffffffffffffffffffffffffff167f8ffcdc15a283d706d38281f500270d8b5a656918f555de0913d7455e3e6bc1bf60405160405180910390a25050505050565b60008181548110620001c357600080fd5b906000526020600020016000915054906101000a900473ffffffffffffffffffffffffffffffffffffffff1681565b606060008054806020026020016040519081016040528092919081815260200182805480156200027857602002820191906000526020600020905b8160009054906101000a900473ffffffffffffffffffffffffffffffffffffffff1673ffffffffffffffffffffffffffffffffffffffff16815260200190600101908083116200022d575b5050505050905090565b61371480620007b383390190565b6000604051905090565b600080fd5b600080fd5b600073ffffffffffffffffffffffffffffffffffffffff82169050919050565b6000620002d182620002a4565b9050919050565b620002e381620002c4565b8114620002ef57600080fd5b50565b6000813590506200030381620002d8565b92915050565b600080fd5b600080fd5b6000601f19601f8301169050919050565b7f4e487b7100000000000000000000000000000000000000000000000000000000600052604160045260246000fd5b6200035e8262000313565b810181811067ffffffffffffffff8211171562000380576200037f62000324565b5b80604052505050565b60006200039562000290565b9050620003a3828262000353565b919050565b600067ffffffffffffffff821115620003c657620003c562000324565b5b620003d18262000313565b9050602081019050919050565b82818337600083830152505050565b600062000404620003fe84620003a8565b62000389565b9050828152602081018484840111156200042357620004226200030e565b5b62000430848285620003de565b509392505050565b600082601f83011262000450576200044f62000309565b5b813562000462848260208601620003ed565b91505092915050565b600080600080608085870312156200048857620004876200029a565b5b60006200049887828801620002f2565b945050602085013567ffffffffffffffff811115620004bc57620004bb6200029f565b5b620004ca8782880162000438565b935050604085013567ffffffffffffffff811115620004ee57620004ed6200029f565b5b620004fc8782880162000438565b925050606085013567ffffffffffffffff81111562000520576200051f6200029f565b5b6200052e8782880162000438565b91505092959194509250565b6000819050919050565b6200054f816200053a565b81146200055b57600080fd5b50565b6000813590506200056f8162000544565b92915050565b6000602082840312156200058e576200058d6200029a565b5b60006200059e848285016200055e565b91505092915050565b620005b281620002c4565b82525050565b6000602082019050620005cf6000830184620005a7565b92915050565b600081519050919050565b600082825260208201905092915050565b6000819050602082019050919050565b6200060c81620002c4565b82525050565b600062000620838362000601565b60208301905092915050565b6000602082019050919050565b60006200064682620005d5565b620006528185620005e0565b93506200065f83620005f1565b8060005b83811015620006965781516200067a888262000612565b975062000687836200062c565b92505060018101905062000663565b5085935050505092915050565b60006020820190508181036000830152620006bf818462000639565b905092915050565b600081519050919050565b600082825260208201905092915050565b60005b8381101562000703578082015181840152602081019050620006e6565b60008484015250505050565b60006200071c82620006c7565b620007288185620006d2565b93506200073a818560208601620006e3565b620007458162000313565b840191505092915050565b6000608082019050620007676000830187620005a7565b81810360208301526200077b81866200070f565b905081810360408301526200079181856200070f565b90508181036060830152620007a781846200070f565b90509594505050505056fe60806040523480156200001157600080fd5b5060405162003714380380620037148339818101604052810190620000379190620003dc565b83838381600090816200004b9190620006f6565b5080600190816200005d9190620006f6565b505050600073ffffffffffffffffffffffffffffffffffffffff168173ffffffffffffffffffffffffffffffffffffffff1603620000d55760006040517f1e4fbdf7000000000000000000000000000000000000000000000000000000008152600401620000cc9190620007ee565b60405180910390fd5b620000e6816200011e60201b60201c565b508060089081620000f89190620006f6565b506001600c60006101000a81548160ff021916908315150217905550505050506200080b565b6000600660009054906101000a900473ffffffffffffffffffffffffffffffffffffffff16905081600660006101000a81548173ffffffffffffffffffffffffffffffffffffffff021916908373ffffffffffffffffffffffffffffffffffffffff1602179055508173ffffffffffffffffffffffffffffffffffffffff168173ffffffffffffffffffffffffffffffffffffffff167f8be0079c531659141344cd1fd0a4f28419497f9722a3daafe3b4186f6b6457e060405160405180910390a35050565b6000604051905090565b600080fd5b600080fd5b600073ffffffffffffffffffffffffffffffffffffffff82169050919050565b60006200022582620001f8565b9050919050565b620002378162000218565b81146200024357600080fd5b50565b60008151905062000257816200022c565b92915050565b600080fd5b600080fd5b6000601f19601f8301169050919050565b7f4e487b7100000000000000000000000000000000000000000000000000000000600052604160045260246000fd5b620002b28262000267565b810181811067ffffffffffffffff82111715620002d457620002d362000278565b5b80604052505050565b6000620002e9620001e4565b9050620002f78282620002a7565b919050565b600067ffffffffffffffff8211156200031a576200031962000278565b5b620003258262000267565b9050602081019050919050565b60005b838110156200035257808201518184015260208101905062000335565b60008484015250505050565b6000620003756200036f84620002fc565b620002dd565b90508281526020810184848401111562000394576200039362000262565b5b620003a184828562000332565b509392505050565b600082601f830112620003c157620003c06200025d565b5b8151620003d38482602086016200035e565b91505092915050565b60008060008060808587031215620003f957620003f8620001ee565b5b6000620004098782880162000246565b945050602085015167ffffffffffffffff8111156200042d576200042c620001f3565b5b6200043b87828801620003a9565b935050604085015167ffffffffffffffff8111156200045f576200045e620001f3565b5b6200046d87828801620003a9565b925050606085015167ffffffffffffffff811115620004915762000490620001f3565b5b6200049f87828801620003a9565b91505092959194509250565b600081519050919050565b7f4e487b7100000000000000000000000000000000000000000000000000000000600052602260045260246000fd5b60006002820490506001821680620004fe57607f821691505b602082108103620005145762000513620004b6565b5b50919050565b60008190508160005260206000209050919050565b60006020601f8301049050919050565b600082821b905092915050565b6000600883026200057e7fffffffffffffffffffffffffffffffffffffffffffffffffffffffffffffffff826200053f565b6200058a86836200053f565b95508019841693508086168417925050509392505050565b6000819050919050565b6000819050919050565b6000620005d7620005d1620005cb84620005a2565b620005ac565b620005a2565b9050919050565b6000819050919050565b620005f383620005b6565b6200060b6200060282620005de565b8484546200054c565b825550505050565b600090565b6200062262000613565b6200062f818484620005e8565b505050565b5b8181101562000657576200064b60008262000618565b60018101905062000635565b5050565b601f821115620006a65762000670816200051a565b6200067b846200052f565b810160208510156200068b578190505b620006a36200069a856200052f565b83018262000634565b50505b505050565b600082821c905092915050565b6000620006cb60001984600802620006ab565b1980831691505092915050565b6000620006e68383620006b8565b9150826002028217905092915050565b6200070182620004ab565b67ffffffffffffffff8111156200071d576200071c62000278565b5b620007298254620004e5565b620007368282856200065b565b600060209050601f8311600181146200076e576000841562000759578287015190505b620007658582620006d8565b865550620007d5565b601f1984166200077e866200051a565b60005b82811015620007a85784890151825560018201915060208501945060208101905062000781565b86831015620007c85784890151620007c4601f891682620006b8565b8355505b6001600288020188555050505b505050505050565b620007e88162000218565b82525050565b6000602082019050620008056000830184620007dd565b92915050565b612ef9806200081b6000396000f3fe608060405234801561001057600080fd5b50600436106101735760003560e01c806370a08231116100de5780639b4f7b2011610097578063bf96ae6311610071578063bf96ae6314610414578063c87b56dd1461041e578063e985e9c51461044e578063f2fde38b1461047e57610173565b80639b4f7b20146103d2578063a22cb465146103dc578063b88d4fde146103f857610173565b806370a0823114610320578063715018a6146103505780637824407f1461035a5780638af05318146103785780638da5cb5b1461039657806395d89b41146103b457610173565b806330bee0f11161013057806330bee0f11461025e57806340d097c31461027c57806342842e0e1461029857806354a18d57146102b45780635fe8e7cc146102d25780636352211e146102f057610173565b806301ffc9a71461017857806306fdde03146101a8578063081812fc146101c6578063095ea7b3146101f657806323b872dd146102125780632a11ced01461022e575b600080fd5b610192600480360381019061018d91906122ac565b61049a565b60405161019f91906122f4565b60405180910390f35b6101b061057c565b6040516101bd919061239f565b60405180910390f35b6101e060048036038101906101db91906123f7565b61060e565b6040516101ed9190612465565b60405180910390f35b610210600480360381019061020b91906124ac565b61062a565b005b61022c600480360381019061022791906124ec565b610640565b005b610248600480360381019061024391906123f7565b6107ed565b6040516102559190612465565b60405180910390f35b61026661082c565b60405161027391906122f4565b60405180910390f35b6102966004803603810190610291919061253f565b61083f565b005b6102b260048036038101906102ad91906124ec565b610a17565b005b6102bc610a37565b6040516102c9919061239f565b60405180910390f35b6102da610ac5565b6040516102e7919061262a565b60405180910390f35b61030a600480360381019061030591906123f7565b610b53565b6040516103179190612465565b60405180910390f35b61033a6004803603810190610335919061253f565b610b65565b604051610347919061265b565b60405180910390f35b610358610c1f565b005b610362610c33565b60405161036f919061265b565b60405180910390f35b610380610c39565b60405161038d919061265b565b60405180910390f35b61039e610c3f565b6040516103ab9190612465565b60405180910390f35b6103bc610c69565b6040516103c9919061239f565b60405180910390f35b6103da610cfb565b005b6103f660048036038101906103f191906126a2565b610d2f565b005b610412600480360381019061040d9190612817565b610d45565b005b61041c610d62565b005b610438600480360381019061043391906123f7565b610eb0565b604051610445919061239f565b60405180910390f35b6104686004803603810190610463919061289a565b610f19565b60405161047591906122f4565b60405180910390f35b6104986004803603810190610493919061253f565b610fad565b005b60007f80ac58cd000000000000000000000000000000000000000000000000000000007bffffffffffffffffffffffffffffffffffffffffffffffffffffffff1916827bffffffffffffffffffffffffffffffffffffffffffffffffffffffff1916148061056557507f5b5e139f000000000000000000000000000000000000000000000000000000007bffffffffffffffffffffffffffffffffffffffffffffffffffffffff1916827bffffffffffffffffffffffffffffffffffffffffffffffffffffffff1916145b80610575575061057482611033565b5b9050919050565b60606000805461058b90612909565b80601f01602080910402602001604051908101604052809291908181526020018280546105b790612909565b80156106045780601f106105d957610100808354040283529160200191610604565b820191906000526020600020905b8154815290600101906020018083116105e757829003601f168201915b5050505050905090565b60006106198261109d565b5061062382611125565b9050919050565b61063c8282610637611162565b61116a565b5050565b600073ffffffffffffffffffffffffffffffffffffffff168273ffffffffffffffffffffffffffffffffffffffff16036106af576040517f08c379a00000000000000000000000000000000000000000000000000000000081526004016106a6906129ac565b60405180910390fd5b60006106ba83610b65565b146106fa576040517f08c379a00000000000000000000000000000000000000000000000000000000081526004016106f190612a18565b60405180910390fd5b600161070584610b65565b03610714576107138361117c565b5b600061071f83610b65565b036107dd57600b829080600181540180825580915050600190039060005260206000200160009091909190916101000a81548173ffffffffffffffffffffffffffffffffffffffff021916908373ffffffffffffffffffffffffffffffffffffffff1602179055506001600b805490506107999190612a67565b600e60008473ffffffffffffffffffffffffffffffffffffffff1673ffffffffffffffffffffffffffffffffffffffff168152602001908152602001600020819055505b6107e8838383611344565b505050565b600b81815481106107fd57600080fd5b906000526020600020016000915054906101000a900473ffffffffffffffffffffffffffffffffffffffff1681565b600c60009054906101000a900460ff1681565b610847611446565b600d60008273ffffffffffffffffffffffffffffffffffffffff1673ffffffffffffffffffffffffffffffffffffffff16815260200190815260200160002060009054906101000a900460ff166108d3576040517f08c379a00000000000000000000000000000000000000000000000000000000081526004016108ca90612ae7565b60405180910390fd5b60006108de82610b65565b1461091e576040517f08c379a000000000000000000000000000000000000000000000000000000000815260040161091590612b53565b60405180910390fd5b60006007600081548092919061093390612b73565b91905055905061094382826114cd565b6009600081548092919061095690612b73565b9190505550600b829080600181540180825580915050600190039060005260206000200160009091909190916101000a81548173ffffffffffffffffffffffffffffffffffffffff021916908373ffffffffffffffffffffffffffffffffffffffff1602179055506001600b805490506109d09190612a67565b600e60008473ffffffffffffffffffffffffffffffffffffffff1673ffffffffffffffffffffffffffffffffffffffff168152602001908152602001600020819055505050565b610a3283838360405180602001604052806000815250610d45565b505050565b60088054610a4490612909565b80601f0160208091040260200160405190810160405280929190818152602001828054610a7090612909565b8015610abd5780601f10610a9257610100808354040283529160200191610abd565b820191906000526020600020905b815481529060010190602001808311610aa057829003601f168201915b505050505081565b6060600b805480602002602001604051908101604052809291908181526020018280548015610b4957602002820191906000526020600020905b8160009054906101000a900473ffffffffffffffffffffffffffffffffffffffff1673ffffffffffffffffffffffffffffffffffffffff1681526020019060010190808311610aff575b5050505050905090565b6000610b5e8261109d565b9050919050565b60008073ffffffffffffffffffffffffffffffffffffffff168273ffffffffffffffffffffffffffffffffffffffff1603610bd85760006040517f89c62b64000000000000000000000000000000000000000000000000000000008152600401610bcf9190612465565b60405180910390fd5b600360008373ffffffffffffffffffffffffffffffffffffffff1673ffffffffffffffffffffffffffffffffffffffff168152602001908152602001600020549050919050565b610c27611446565b610c3160006114eb565b565b60095481565b600a5481565b6000600660009054906101000a900473ffffffffffffffffffffffffffffffffffffffff16905090565b606060018054610c7890612909565b80601f0160208091040260200160405190810160405280929190818152602001828054610ca490612909565b8015610cf15780601f10610cc657610100808354040283529160200191610cf1565b820191906000526020600020905b815481529060010190602001808311610cd457829003601f168201915b5050505050905090565b610d03611446565b600c60009054906101000a900460ff1615600c60006101000a81548160ff021916908315150217905550565b610d41610d3a611162565b83836115b1565b5050565b610d50848484610640565b610d5c84848484611720565b50505050565b600c60009054906101000a900460ff16610db1576040517f08c379a0000000000000000000000000000000000000000000000000000000008152600401610da890612c07565b60405180910390fd5b600d60003373ffffffffffffffffffffffffffffffffffffffff1673ffffffffffffffffffffffffffffffffffffffff16815260200190815260200160002060009054906101000a900460ff1615610e3e576040517f08c379a0000000000000000000000000000000000000000000000000000000008152600401610e3590612c73565b60405180910390fd5b6001600d60003373ffffffffffffffffffffffffffffffffffffffff1673ffffffffffffffffffffffffffffffffffffffff16815260200190815260200160002060006101000a81548160ff021916908315150217905550600a6000815480929190610ea990612b73565b9190505550565b6060610ebb8261109d565b506000610ec66118d7565b90506000815111610ee65760405180602001604052806000815250610f11565b80610ef084611969565b604051602001610f01929190612ccf565b6040516020818303038152906040525b915050919050565b6000600560008473ffffffffffffffffffffffffffffffffffffffff1673ffffffffffffffffffffffffffffffffffffffff16815260200190815260200160002060008373ffffffffffffffffffffffffffffffffffffffff1673ffffffffffffffffffffffffffffffffffffffff16815260200190815260200160002060009054906101000a900460ff16905092915050565b610fb5611446565b600073ffffffffffffffffffffffffffffffffffffffff168173ffffffffffffffffffffffffffffffffffffffff16036110275760006040517f1e4fbdf700000000000000000000000000000000000000000000000000000000815260040161101e9190612465565b60405180910390fd5b611030816114eb565b50565b60007f01ffc9a7000000000000000000000000000000000000000000000000000000007bffffffffffffffffffffffffffffffffffffffffffffffffffffffff1916827bffffffffffffffffffffffffffffffffffffffffffffffffffffffff1916149050919050565b6000806110a983611a37565b9050600073ffffffffffffffffffffffffffffffffffffffff168173ffffffffffffffffffffffffffffffffffffffff160361111c57826040517f7e273289000000000000000000000000000000000000000000000000000000008152600401611113919061265b565b60405180910390fd5b80915050919050565b60006004600083815260200190815260200160002060009054906101000a900473ffffffffffffffffffffffffffffffffffffffff169050919050565b600033905090565b6111778383836001611a74565b505050565b6000600e60008373ffffffffffffffffffffffffffffffffffffffff1673ffffffffffffffffffffffffffffffffffffffff1681526020019081526020016000205490506000600b6001600b805490506111d69190612a67565b815481106111e7576111e6612cf3565b5b9060005260206000200160009054906101000a900473ffffffffffffffffffffffffffffffffffffffff16905080600b838154811061122957611228612cf3565b5b9060005260206000200160006101000a81548173ffffffffffffffffffffffffffffffffffffffff021916908373ffffffffffffffffffffffffffffffffffffffff16021790555081600e60008373ffffffffffffffffffffffffffffffffffffffff1673ffffffffffffffffffffffffffffffffffffffff16815260200190815260200160002081905550600b8054806112c7576112c6612d22565b5b6001900381819060005260206000200160006101000a81549073ffffffffffffffffffffffffffffffffffffffff02191690559055600e60008473ffffffffffffffffffffffffffffffffffffffff1673ffffffffffffffffffffffffffffffffffffffff16815260200190815260200160002060009055505050565b600073ffffffffffffffffffffffffffffffffffffffff168273ffffffffffffffffffffffffffffffffffffffff16036113b65760006040517f64a0ae920000000000000000000000000000000000000000000000000000000081526004016113ad9190612465565b60405180910390fd5b60006113ca83836113c5611162565b611c39565b90508373ffffffffffffffffffffffffffffffffffffffff168173ffffffffffffffffffffffffffffffffffffffff1614611440578382826040517f64283d7b00000000000000000000000000000000000000000000000000000000815260040161143793929190612d51565b60405180910390fd5b50505050565b61144e611162565b73ffffffffffffffffffffffffffffffffffffffff1661146c610c3f565b73ffffffffffffffffffffffffffffffffffffffff16146114cb5761148f611162565b6040517f118cdaa70000000000000000000000000000000000000000000000000000000081526004016114c29190612465565b60405180910390fd5b565b6114e7828260405180602001604052806000815250611e53565b5050565b6000600660009054906101000a900473ffffffffffffffffffffffffffffffffffffffff16905081600660006101000a81548173ffffffffffffffffffffffffffffffffffffffff021916908373ffffffffffffffffffffffffffffffffffffffff1602179055508173ffffffffffffffffffffffffffffffffffffffff168173ffffffffffffffffffffffffffffffffffffffff167f8be0079c531659141344cd1fd0a4f28419497f9722a3daafe3b4186f6b6457e060405160405180910390a35050565b600073ffffffffffffffffffffffffffffffffffffffff168273ffffffffffffffffffffffffffffffffffffffff160361162257816040517f5b08ba180000000000000000000000000000000000000000000000000000000081526004016116199190612465565b60405180910390fd5b80600560008573ffffffffffffffffffffffffffffffffffffffff1673ffffffffffffffffffffffffffffffffffffffff16815260200190815260200160002060008473ffffffffffffffffffffffffffffffffffffffff1673ffffffffffffffffffffffffffffffffffffffff16815260200190815260200160002060006101000a81548160ff0219169083151502179055508173ffffffffffffffffffffffffffffffffffffffff168373ffffffffffffffffffffffffffffffffffffffff167f17307eab39ab6107e8899845ad3d59bd9653f200f220920489ca2b5937696c318360405161171391906122f4565b60405180910390a3505050565b60008373ffffffffffffffffffffffffffffffffffffffff163b11156118d1578273ffffffffffffffffffffffffffffffffffffffff1663150b7a02611764611162565b8685856040518563ffffffff1660e01b81526004016117869493929190612ddd565b6020604051808303816000875af19250505080156117c257506040513d601f19601f820116820180604052508101906117bf9190612e3e565b60015b611846573d80600081146117f2576040519150601f19603f3d011682016040523d82523d6000602084013e6117f7565b606091505b50600081510361183e57836040517f64a0ae920000000000000000000000000000000000000000000000000000000081526004016118359190612465565b60405180910390fd5b805181602001fd5b63150b7a0260e01b7bffffffffffffffffffffffffffffffffffffffffffffffffffffffff1916817bffffffffffffffffffffffffffffffffffffffffffffffffffffffff1916146118cf57836040517f64a0ae920000000000000000000000000000000000000000000000000000000081526004016118c69190612465565b60405180910390fd5b505b50505050565b6060600880546118e690612909565b80601f016020809104026020016040519081016040528092919081815260200182805461191290612909565b801561195f5780601f106119345761010080835404028352916020019161195f565b820191906000526020600020905b81548152906001019060200180831161194257829003601f168201915b5050505050905090565b60606000600161197884611e6f565b01905060008167ffffffffffffffff811115611997576119966126ec565b5b6040519080825280601f01601f1916602001820160405280156119c95781602001600182028036833780820191505090505b509050600082602001820190505b600115611a2c578080600190039150507f3031323334353637383961626364656600000000000000000000000000000000600a86061a8153600a8581611a2057611a1f612e6b565b5b049450600085036119d7575b819350505050919050565b60006002600083815260200190815260200160002060009054906101000a900473ffffffffffffffffffffffffffffffffffffffff169050919050565b8080611aad5750600073ffffffffffffffffffffffffffffffffffffffff168273ffffffffffffffffffffffffffffffffffffffff1614155b15611be1576000611abd8461109d565b9050600073ffffffffffffffffffffffffffffffffffffffff168373ffffffffffffffffffffffffffffffffffffffff1614158015611b2857508273ffffffffffffffffffffffffffffffffffffffff168173ffffffffffffffffffffffffffffffffffffffff1614155b8015611b3b5750611b398184610f19565b155b15611b7d57826040517fa9fbf51f000000000000000000000000000000000000000000000000000000008152600401611b749190612465565b60405180910390fd5b8115611bdf57838573ffffffffffffffffffffffffffffffffffffffff168273ffffffffffffffffffffffffffffffffffffffff167f8c5be1e5ebec7d5bd14f71427d1e84f3dd0314c0f7b2291e5b200ac8c7c3b92560405160405180910390a45b505b836004600085815260200190815260200160002060006101000a81548173ffffffffffffffffffffffffffffffffffffffff021916908373ffffffffffffffffffffffffffffffffffffffff16021790555050505050565b600080611c4584611a37565b9050600073ffffffffffffffffffffffffffffffffffffffff168373ffffffffffffffffffffffffffffffffffffffff1614611c8757611c86818486611fc2565b5b600073ffffffffffffffffffffffffffffffffffffffff168173ffffffffffffffffffffffffffffffffffffffff1614611d1857611cc9600085600080611a74565b6001600360008373ffffffffffffffffffffffffffffffffffffffff1673ffffffffffffffffffffffffffffffffffffffff168152602001908152602001600020600082825403925050819055505b600073ffffffffffffffffffffffffffffffffffffffff168573ffffffffffffffffffffffffffffffffffffffff1614611d9b576001600360008773ffffffffffffffffffffffffffffffffffffffff1673ffffffffffffffffffffffffffffffffffffffff168152602001908152602001600020600082825401925050819055505b846002600086815260200190815260200160002060006101000a81548173ffffffffffffffffffffffffffffffffffffffff021916908373ffffffffffffffffffffffffffffffffffffffff160217905550838573ffffffffffffffffffffffffffffffffffffffff168273ffffffffffffffffffffffffffffffffffffffff167fddf252ad1be2c89b69c2b068fc378daa952ba7f163c4a11628f55a4df523b3ef60405160405180910390a4809150509392505050565b611e5d8383612086565b611e6a6000848484611720565b505050565b600080600090507a184f03e93ff9f4daa797ed6e38ed64bf6a1f0100000000000000008310611ecd577a184f03e93ff9f4daa797ed6e38ed64bf6a1f0100000000000000008381611ec357611ec2612e6b565b5b0492506040810190505b6d04ee2d6d415b85acef81000000008310611f0a576d04ee2d6d415b85acef81000000008381611f0057611eff612e6b565b5b0492506020810190505b662386f26fc100008310611f3957662386f26fc100008381611f2f57611f2e612e6b565b5b0492506010810190505b6305f5e1008310611f62576305f5e1008381611f5857611f57612e6b565b5b0492506008810190505b6127108310611f87576127108381611f7d57611f7c612e6b565b5b0492506004810190505b60648310611faa5760648381611fa057611f9f612e6b565b5b0492506002810190505b600a8310611fb9576001810190505b80915050919050565b611fcd83838361217f565b61208157600073ffffffffffffffffffffffffffffffffffffffff168373ffffffffffffffffffffffffffffffffffffffff160361204257806040517f7e273289000000000000000000000000000000000000000000000000000000008152600401612039919061265b565b60405180910390fd5b81816040517f177e802f000000000000000000000000000000000000000000000000000000008152600401612078929190612e9a565b60405180910390fd5b505050565b600073ffffffffffffffffffffffffffffffffffffffff168273ffffffffffffffffffffffffffffffffffffffff16036120f85760006040517f64a0ae920000000000000000000000000000000000000000000000000000000081526004016120ef9190612465565b60405180910390fd5b600061210683836000611c39565b9050600073ffffffffffffffffffffffffffffffffffffffff168173ffffffffffffffffffffffffffffffffffffffff161461217a5760006040517f73c6ac6e0000000000000000000000000000000000000000000000000000000081526004016121719190612465565b60405180910390fd5b505050565b60008073ffffffffffffffffffffffffffffffffffffffff168373ffffffffffffffffffffffffffffffffffffffff161415801561223757508273ffffffffffffffffffffffffffffffffffffffff168473ffffffffffffffffffffffffffffffffffffffff1614806121f857506121f78484610f19565b5b8061223657508273ffffffffffffffffffffffffffffffffffffffff1661221e83611125565b73ffffffffffffffffffffffffffffffffffffffff16145b5b90509392505050565b6000604051905090565b600080fd5b600080fd5b60007fffffffff0000000000000000000000000000000000000000000000000000000082169050919050565b61228981612254565b811461229457600080fd5b50565b6000813590506122a681612280565b92915050565b6000602082840312156122c2576122c161224a565b5b60006122d084828501612297565b91505092915050565b60008115159050919050565b6122ee816122d9565b82525050565b600060208201905061230960008301846122e5565b92915050565b600081519050919050565b600082825260208201905092915050565b60005b8381101561234957808201518184015260208101905061232e565b60008484015250505050565b6000601f19601f8301169050919050565b60006123718261230f565b61237b818561231a565b935061238b81856020860161232b565b61239481612355565b840191505092915050565b600060208201905081810360008301526123b98184612366565b905092915050565b6000819050919050565b6123d4816123c1565b81146123df57600080fd5b50565b6000813590506123f1816123cb565b92915050565b60006020828403121561240d5761240c61224a565b5b600061241b848285016123e2565b91505092915050565b600073ffffffffffffffffffffffffffffffffffffffff82169050919050565b600061244f82612424565b9050919050565b61245f81612444565b82525050565b600060208201905061247a6000830184612456565b92915050565b61248981612444565b811461249457600080fd5b50565b6000813590506124a681612480565b92915050565b600080604083850312156124c3576124c261224a565b5b60006124d185828601612497565b92505060206124e2858286016123e2565b9150509250929050565b6000806000606084860312156125055761250461224a565b5b600061251386828701612497565b935050602061252486828701612497565b9250506040612535868287016123e2565b9150509250925092565b6000602082840312156125555761255461224a565b5b600061256384828501612497565b91505092915050565b600081519050919050565b600082825260208201905092915050565b6000819050602082019050919050565b6125a181612444565b82525050565b60006125b38383612598565b60208301905092915050565b6000602082019050919050565b60006125d78261256c565b6125e18185612577565b93506125ec83612588565b8060005b8381101561261d57815161260488826125a7565b975061260f836125bf565b9250506001810190506125f0565b5085935050505092915050565b6000602082019050818103600083015261264481846125cc565b905092915050565b612655816123c1565b82525050565b6000602082019050612670600083018461264c565b92915050565b61267f816122d9565b811461268a57600080fd5b50565b60008135905061269c81612676565b92915050565b600080604083850312156126b9576126b861224a565b5b60006126c785828601612497565b92505060206126d88582860161268d565b9150509250929050565b600080fd5b600080fd5b7f4e487b7100000000000000000000000000000000000000000000000000000000600052604160045260246000fd5b61272482612355565b810181811067ffffffffffffffff82111715612743576127426126ec565b5b80604052505050565b6000612756612240565b9050612762828261271b565b919050565b600067ffffffffffffffff821115612782576127816126ec565b5b61278b82612355565b9050602081019050919050565b82818337600083830152505050565b60006127ba6127b584612767565b61274c565b9050828152602081018484840111156127d6576127d56126e7565b5b6127e1848285612798565b509392505050565b600082601f8301126127fe576127fd6126e2565b5b813561280e8482602086016127a7565b91505092915050565b600080600080608085870312156128315761283061224a565b5b600061283f87828801612497565b945050602061285087828801612497565b9350506040612861878288016123e2565b925050606085013567ffffffffffffffff8111156128825761288161224f565b5b61288e878288016127e9565b91505092959194509250565b600080604083850312156128b1576128b061224a565b5b60006128bf85828601612497565b92505060206128d085828601612497565b9150509250929050565b7f4e487b7100000000000000000000000000000000000000000000000000000000600052602260045260246000fd5b6000600282049050600182168061292157607f821691505b602082108103612934576129336128da565b5b50919050565b7f43616e6e6f74207472616e7366657220746f2061207a65726f2061646472657360008201527f7300000000000000000000000000000000000000000000000000000000000000602082015250565b600061299660218361231a565b91506129a18261293a565b604082019050919050565b600060208201905081810360008301526129c581612989565b9050919050565b7f526563697069656e7420616c7265616479206f776e73206120504f4150000000600082015250565b6000612a02601d8361231a565b9150612a0d826129cc565b602082019050919050565b60006020820190508181036000830152612a31816129f5565b9050919050565b7f4e487b7100000000000000000000000000000000000000000000000000000000600052601160045260246000fd5b6000612a72826123c1565b9150612a7d836123c1565b9250828203905081811115612a9557612a94612a38565b5b92915050565b7f4164647265737320686173206e6f74207369676e65642075702e000000000000600082015250565b6000612ad1601a8361231a565b9150612adc82612a9b565b602082019050919050565b60006020820190508181036000830152612b0081612ac4565b9050919050565b7f4164647265737320616c7265616479206f776e73206120504f41500000000000600082015250565b6000612b3d601b8361231a565b9150612b4882612b07565b602082019050919050565b60006020820190508181036000830152612b6c81612b30565b9050919050565b6000612b7e826123c1565b91507fffffffffffffffffffffffffffffffffffffffffffffffffffffffffffffffff8203612bb057612baf612a38565b5b600182019050919050565b7f5369676e2d757073206172652063757272656e746c792064697361626c65642e600082015250565b6000612bf160208361231a565b9150612bfc82612bbb565b602082019050919050565b60006020820190508181036000830152612c2081612be4565b9050919050565b7f596f75206861766520616c7265616479207369676e65642075702e0000000000600082015250565b6000612c5d601b8361231a565b9150612c6882612c27565b602082019050919050565b60006020820190508181036000830152612c8c81612c50565b9050919050565b600081905092915050565b6000612ca98261230f565b612cb38185612c93565b9350612cc381856020860161232b565b80840191505092915050565b6000612cdb8285612c9e565b9150612ce78284612c9e565b91508190509392505050565b7f4e487b7100000000000000000000000000000000000000000000000000000000600052603260045260246000fd5b7f4e487b7100000000000000000000000000000000000000000000000000000000600052603160045260246000fd5b6000606082019050612d666000830186612456565b612d73602083018561264c565b612d806040830184612456565b949350505050565b600081519050919050565b600082825260208201905092915050565b6000612daf82612d88565b612db98185612d93565b9350612dc981856020860161232b565b612dd281612355565b840191505092915050565b6000608082019050612df26000830187612456565b612dff6020830186612456565b612e0c604083018561264c565b8181036060830152612e1e8184612da4565b905095945050505050565b600081519050612e3881612280565b92915050565b600060208284031215612e5457612e5361224a565b5b6000612e6284828501612e29565b91505092915050565b7f4e487b7100000000000000000000000000000000000000000000000000000000600052601260045260246000fd5b6000604082019050612eaf6000830185612456565b612ebc602083018461264c565b939250505056fea26469706673582212206dd576b79bb2ce0b45bc0be17068c095cc92612d30c302fb67e1b387076e2d8e64736f6c63430008180033a2646970667358221220fe5c5f8067ce9cc16a08ef78c12316a16d6dc58aea06c79dbaf00dfd29bd75de64736f6c63430008180033",
  "linkReferences": {},
  "deployedLinkReferences": {}
}